{
  "contractName": "PubSubContract",
  "abi": [
    {
      "anonymous": false,
      "inputs": [
        {
          "indexed": false,
          "internalType": "string",
          "name": "topic",
          "type": "string"
        },
        {
          "indexed": false,
          "internalType": "string",
          "name": "message",
          "type": "string"
        },
        {
          "indexed": false,
          "internalType": "address",
          "name": "subscriber",
          "type": "address"
        }
      ],
      "name": "MessageReceived",
      "type": "event"
    },
    {
      "inputs": [
        {
          "internalType": "string",
          "name": "_topicName",
          "type": "string"
        }
      ],
      "name": "advertise",
      "outputs": [],
      "stateMutability": "nonpayable",
      "type": "function"
    },
    {
      "inputs": [
        {
          "internalType": "string",
          "name": "_topicName",
          "type": "string"
        }
      ],
      "name": "subscribe",
      "outputs": [],
      "stateMutability": "payable",
      "type": "function",
      "payable": true
    },
    {
      "inputs": [
        {
          "internalType": "string",
          "name": "_topicName",
          "type": "string"
        },
        {
          "internalType": "string",
          "name": "_message",
          "type": "string"
        }
      ],
      "name": "publish",
      "outputs": [],
      "stateMutability": "nonpayable",
      "type": "function"
    },
    {
      "inputs": [
        {
          "internalType": "string",
          "name": "_topicName",
          "type": "string"
        }
      ],
      "name": "unsubscribe",
      "outputs": [],
      "stateMutability": "nonpayable",
      "type": "function"
    },
    {
      "inputs": [
        {
          "internalType": "string",
          "name": "_topicName",
          "type": "string"
        }
      ],
      "name": "getTopicPublishers",
      "outputs": [
        {
          "internalType": "address[]",
          "name": "",
          "type": "address[]"
        }
      ],
      "stateMutability": "view",
      "type": "function",
      "constant": true
    },
    {
      "inputs": [
        {
          "internalType": "string",
          "name": "_topicName",
          "type": "string"
        }
      ],
      "name": "getTopicSubscribers",
      "outputs": [
        {
          "internalType": "address[]",
          "name": "",
          "type": "address[]"
        }
      ],
      "stateMutability": "view",
      "type": "function",
      "constant": true
    },
    {
      "inputs": [
        {
          "internalType": "string",
          "name": "_topicName",
          "type": "string"
        },
        {
          "internalType": "address",
          "name": "_subscriber",
          "type": "address"
        }
      ],
      "name": "getSubscriberMessages",
      "outputs": [
        {
          "internalType": "string[]",
          "name": "",
          "type": "string[]"
        }
      ],
      "stateMutability": "view",
      "type": "function",
      "constant": true
    },
    {
      "inputs": [
        {
          "internalType": "string",
          "name": "_topicName",
          "type": "string"
        },
        {
          "internalType": "address",
          "name": "_subscriber",
          "type": "address"
        }
      ],
      "name": "getSubscriberBalance",
      "outputs": [
        {
          "internalType": "uint256",
          "name": "",
          "type": "uint256"
        }
      ],
      "stateMutability": "view",
      "type": "function",
      "constant": true
    }
  ],
  "bytecode": "0x608060405234801561001057600080fd5b50611d9d806100206000396000f3fe60806040526004361061007b5760003560e01c8063507e78881161004e578063507e78881461014c578063bb2cd3c314610168578063c163bba7146101a5578063c16b1b33146101ce5761007b565b806307c02c4f1461008057806339d6f2b3146100bd57806347cc5f9a146100e65780634c3346481461010f575b600080fd5b34801561008c57600080fd5b506100a760048036038101906100a291906114c3565b61020b565b6040516100b49190611936565b60405180910390f35b3480156100c957600080fd5b506100e460048036038101906100df91906114c3565b6102ba565b005b3480156100f257600080fd5b5061010d600480360381019061010891906114c3565b610448565b005b34801561011b57600080fd5b5061013660048036038101906101319190611504565b610856565b6040516101439190611a5f565b60405180910390f35b610166600480360381019061016191906114c3565b6108be565b005b34801561017457600080fd5b5061018f600480360381019061018a91906114c3565b610acc565b60405161019c9190611936565b60405180910390f35b3480156101b157600080fd5b506101cc60048036038101906101c79190611558565b610b7b565b005b3480156101da57600080fd5b506101f560048036038101906101f09190611504565b6111e6565b6040516102029190611958565b60405180910390f35b606060008260405161021d919061191f565b90815260200160405180910390206003018054806020026020016040519081016040528092919081815260200182805480156102ae57602002820191906000526020600020905b8160009054906101000a900473ffffffffffffffffffffffffffffffffffffffff1673ffffffffffffffffffffffffffffffffffffffff1681526020019060010190808311610264575b50505050509050919050565b600080826040516102cb919061191f565b9081526020016040518091039020905060008160000180546102ec90611c37565b9050141561030e578181600001908051906020019061030c92919061131e565b505b6000805b82600201805490508110156103d7573373ffffffffffffffffffffffffffffffffffffffff16836002018281548110610374577f4e487b7100000000000000000000000000000000000000000000000000000000600052603260045260246000fd5b9060005260206000200160009054906101000a900473ffffffffffffffffffffffffffffffffffffffff1673ffffffffffffffffffffffffffffffffffffffff1614156103c457600191506103d7565b80806103cf90611c69565b915050610312565b50806104435781600201339080600181540180825580915050600190039060005260206000200160009091909190916101000a81548173ffffffffffffffffffffffffffffffffffffffff021916908373ffffffffffffffffffffffffffffffffffffffff1602179055505b505050565b60008082604051610459919061191f565b90815260200160405180910390209050600081600001805461047a90611c37565b905014156104bd576040517f08c379a00000000000000000000000000000000000000000000000000000000081526004016104b490611a1f565b60405180910390fd5b60008160050160003373ffffffffffffffffffffffffffffffffffffffff1673ffffffffffffffffffffffffffffffffffffffff16815260200190815260200160002054905060008111610546576040517f08c379a000000000000000000000000000000000000000000000000000000000815260040161053d90611a3f565b60405180910390fd5b3373ffffffffffffffffffffffffffffffffffffffff166108fc829081150290604051600060405180830381858888f1935050505015801561058c573d6000803e3d6000fd5b5060005b82600301805490508110156107be573373ffffffffffffffffffffffffffffffffffffffff168360030182815481106105f2577f4e487b7100000000000000000000000000000000000000000000000000000000600052603260045260246000fd5b9060005260206000200160009054906101000a900473ffffffffffffffffffffffffffffffffffffffff1673ffffffffffffffffffffffffffffffffffffffff1614156107ab5782600301600184600301805490506106519190611b85565b81548110610688577f4e487b7100000000000000000000000000000000000000000000000000000000600052603260045260246000fd5b9060005260206000200160009054906101000a900473ffffffffffffffffffffffffffffffffffffffff168360030182815481106106ef577f4e487b7100000000000000000000000000000000000000000000000000000000600052603260045260246000fd5b9060005260206000200160006101000a81548173ffffffffffffffffffffffffffffffffffffffff021916908373ffffffffffffffffffffffffffffffffffffffff16021790555082600301805480610771577f4e487b7100000000000000000000000000000000000000000000000000000000600052603160045260246000fd5b6001900381819060005260206000200160006101000a81549073ffffffffffffffffffffffffffffffffffffffff021916905590556107be565b80806107b690611c69565b915050610590565b508160050160003373ffffffffffffffffffffffffffffffffffffffff1673ffffffffffffffffffffffffffffffffffffffff168152602001908152602001600020600090558160040160003373ffffffffffffffffffffffffffffffffffffffff1673ffffffffffffffffffffffffffffffffffffffff168152602001908152602001600020600061085191906113a4565b505050565b60008083604051610867919061191f565b908152602001604051809103902060050160008373ffffffffffffffffffffffffffffffffffffffff1673ffffffffffffffffffffffffffffffffffffffff16815260200190815260200160002054905092915050565b600080826040516108cf919061191f565b908152602001604051809103902060000180546108eb90611c37565b9050141561092e576040517f08c379a000000000000000000000000000000000000000000000000000000000815260040161092590611a1f565b60405180910390fd5b6706f05b59d3b200003414610978576040517f08c379a000000000000000000000000000000000000000000000000000000000815260040161096f906119ff565b60405180910390fd5b60008082604051610989919061191f565b9081526020016040518091039020905060008160050160003373ffffffffffffffffffffffffffffffffffffffff1673ffffffffffffffffffffffffffffffffffffffff1681526020019081526020016000205414610a1d576040517f08c379a0000000000000000000000000000000000000000000000000000000008152600401610a14906119df565b60405180910390fd5b80600301339080600181540180825580915050600190039060005260206000200160009091909190916101000a81548173ffffffffffffffffffffffffffffffffffffffff021916908373ffffffffffffffffffffffffffffffffffffffff160217905550348160050160003373ffffffffffffffffffffffffffffffffffffffff1673ffffffffffffffffffffffffffffffffffffffff168152602001908152602001600020819055505050565b6060600082604051610ade919061191f565b9081526020016040518091039020600201805480602002602001604051908101604052809291908181526020018280548015610b6f57602002820191906000526020600020905b8160009054906101000a900473ffffffffffffffffffffffffffffffffffffffff1673ffffffffffffffffffffffffffffffffffffffff1681526020019060010190808311610b25575b50505050509050919050565b60008083604051610b8c919061191f565b908152602001604051809103902090506000816000018054610bad90611c37565b90501415610bf0576040517f08c379a0000000000000000000000000000000000000000000000000000000008152600401610be790611a1f565b60405180910390fd5b6000805b8260020180549050811015610cb9573373ffffffffffffffffffffffffffffffffffffffff16836002018281548110610c56577f4e487b7100000000000000000000000000000000000000000000000000000000600052603260045260246000fd5b9060005260206000200160009054906101000a900473ffffffffffffffffffffffffffffffffffffffff1673ffffffffffffffffffffffffffffffffffffffff161415610ca65760019150610cb9565b8080610cb190611c69565b915050610bf4565b5080610cfa576040517f08c379a0000000000000000000000000000000000000000000000000000000008152600401610cf1906119bf565b60405180910390fd5b8160010183908060018154018082558091505060019003906000526020600020016000909190919091509080519060200190610d3792919061131e565b5060005b82600301805490508110156111df576000836003018281548110610d88577f4e487b7100000000000000000000000000000000000000000000000000000000600052603260045260246000fd5b9060005260206000200160009054906101000a900473ffffffffffffffffffffffffffffffffffffffff16905060008460050160008373ffffffffffffffffffffffffffffffffffffffff1673ffffffffffffffffffffffffffffffffffffffff1681526020019081526020016000205490506000811115610f75576611c37937e080008110610e76576611c37937e080008560050160008473ffffffffffffffffffffffffffffffffffffffff1673ffffffffffffffffffffffffffffffffffffffff1681526020019081526020016000206000828254610e6a9190611b85565b92505081905550610ebe565b60008560050160008473ffffffffffffffffffffffffffffffffffffffff1673ffffffffffffffffffffffffffffffffffffffff168152602001908152602001600020819055505b8460040160008373ffffffffffffffffffffffffffffffffffffffff1673ffffffffffffffffffffffffffffffffffffffff16815260200190815260200160002086908060018154018082558091505060019003906000526020600020016000909190919091509080519060200190610f3892919061131e565b507f1d8ccc9f2d29e384e86bdd5dc21dbcdec3d6c5792eb6db7a465be828e0b0ff09878784604051610f6c9392919061197a565b60405180910390a15b60008560050160008473ffffffffffffffffffffffffffffffffffffffff1673ffffffffffffffffffffffffffffffffffffffff1681526020019081526020016000205414156111c95760008560030160018760030180549050610fd99190611b85565b81548110611010577f4e487b7100000000000000000000000000000000000000000000000000000000600052603260045260246000fd5b9060005260206000200160009054906101000a900473ffffffffffffffffffffffffffffffffffffffff1690508086600301858154811061107a577f4e487b7100000000000000000000000000000000000000000000000000000000600052603260045260246000fd5b9060005260206000200160006101000a81548173ffffffffffffffffffffffffffffffffffffffff021916908373ffffffffffffffffffffffffffffffffffffffff160217905550856003018054806110fc577f4e487b7100000000000000000000000000000000000000000000000000000000600052603160045260246000fd5b6001900381819060005260206000200160006101000a81549073ffffffffffffffffffffffffffffffffffffffff021916905590558560050160008473ffffffffffffffffffffffffffffffffffffffff1673ffffffffffffffffffffffffffffffffffffffff168152602001908152602001600020600090558560040160008473ffffffffffffffffffffffffffffffffffffffff1673ffffffffffffffffffffffffffffffffffffffff16815260200190815260200160002060006111c391906113a4565b506111d8565b82806111d490611c69565b9350505b5050610d3b565b5050505050565b60606000836040516111f8919061191f565b908152602001604051809103902060040160008373ffffffffffffffffffffffffffffffffffffffff1673ffffffffffffffffffffffffffffffffffffffff168152602001908152602001600020805480602002602001604051908101604052809291908181526020016000905b8282101561131257838290600052602060002001805461128590611c37565b80601f01602080910402602001604051908101604052809291908181526020018280546112b190611c37565b80156112fe5780601f106112d3576101008083540402835291602001916112fe565b820191906000526020600020905b8154815290600101906020018083116112e157829003601f168201915b505050505081526020019060010190611266565b50505050905092915050565b82805461132a90611c37565b90600052602060002090601f01602090048101928261134c5760008555611393565b82601f1061136557805160ff1916838001178555611393565b82800160010185558215611393579182015b82811115611392578251825591602001919060010190611377565b5b5090506113a091906113c5565b5090565b50805460008255906000526020600020908101906113c291906113e2565b50565b5b808211156113de5760008160009055506001016113c6565b5090565b5b8082111561140257600081816113f99190611406565b506001016113e3565b5090565b50805461141290611c37565b6000825580601f106114245750611443565b601f01602090049060005260206000209081019061144291906113c5565b5b50565b600061145961145484611aab565b611a7a565b90508281526020810184848401111561147157600080fd5b61147c848285611bf5565b509392505050565b60008135905061149381611d50565b92915050565b600082601f8301126114aa57600080fd5b81356114ba848260208601611446565b91505092915050565b6000602082840312156114d557600080fd5b600082013567ffffffffffffffff8111156114ef57600080fd5b6114fb84828501611499565b91505092915050565b6000806040838503121561151757600080fd5b600083013567ffffffffffffffff81111561153157600080fd5b61153d85828601611499565b925050602061154e85828601611484565b9150509250929050565b6000806040838503121561156b57600080fd5b600083013567ffffffffffffffff81111561158557600080fd5b61159185828601611499565b925050602083013567ffffffffffffffff8111156115ae57600080fd5b6115ba85828601611499565b9150509250929050565b60006115d083836115f0565b60208301905092915050565b60006115e883836116e1565b905092915050565b6115f981611bb9565b82525050565b61160881611bb9565b82525050565b600061161982611afb565b6116238185611b36565b935061162e83611adb565b8060005b8381101561165f57815161164688826115c4565b975061165183611b1c565b925050600181019050611632565b5085935050505092915050565b600061167782611b06565b6116818185611b47565b93508360208202850161169385611aeb565b8060005b858110156116cf57848403895281516116b085826115dc565b94506116bb83611b29565b925060208a01995050600181019050611697565b50829750879550505050505092915050565b60006116ec82611b11565b6116f68185611b58565b9350611706818560208601611c04565b61170f81611d3f565b840191505092915050565b600061172582611b11565b61172f8185611b69565b935061173f818560208601611c04565b61174881611d3f565b840191505092915050565b600061175e82611b11565b6117688185611b7a565b9350611778818560208601611c04565b80840191505092915050565b6000611791602783611b69565b91507f43616c6c6572206973206e6f742061207075626c6973686572206f662074686960008301527f7320746f706963000000000000000000000000000000000000000000000000006020830152604082019050919050565b60006117f7602083611b69565b91507f416c7265616479207375627363726962656420746f207468697320746f7069636000830152602082019050919050565b6000611837601e83611b69565b91507f4d7573742073656e6420302e352045544820746f2073756273637269626500006000830152602082019050919050565b6000611877601483611b69565b91507f546f70696320646f6573206e6f742065786973740000000000000000000000006000830152602082019050919050565b60006118b7602683611b69565b91507f4e6f742073756273637269626564206f72206e6f2062616c616e63652072656d60008301527f61696e696e6700000000000000000000000000000000000000000000000000006020830152604082019050919050565b61191981611beb565b82525050565b600061192b8284611753565b915081905092915050565b60006020820190508181036000830152611950818461160e565b905092915050565b60006020820190508181036000830152611972818461166c565b905092915050565b60006060820190508181036000830152611994818661171a565b905081810360208301526119a8818561171a565b90506119b760408301846115ff565b949350505050565b600060208201905081810360008301526119d881611784565b9050919050565b600060208201905081810360008301526119f8816117ea565b9050919050565b60006020820190508181036000830152611a188161182a565b9050919050565b60006020820190508181036000830152611a388161186a565b9050919050565b60006020820190508181036000830152611a58816118aa565b9050919050565b6000602082019050611a746000830184611910565b92915050565b6000604051905081810181811067ffffffffffffffff82111715611aa157611aa0611d10565b5b8060405250919050565b600067ffffffffffffffff821115611ac657611ac5611d10565b5b601f19601f8301169050602081019050919050565b6000819050602082019050919050565b6000819050602082019050919050565b600081519050919050565b600081519050919050565b600081519050919050565b6000602082019050919050565b6000602082019050919050565b600082825260208201905092915050565b600082825260208201905092915050565b600082825260208201905092915050565b600082825260208201905092915050565b600081905092915050565b6000611b9082611beb565b9150611b9b83611beb565b925082821015611bae57611bad611cb2565b5b828203905092915050565b6000611bc482611bcb565b9050919050565b600073ffffffffffffffffffffffffffffffffffffffff82169050919050565b6000819050919050565b82818337600083830152505050565b60005b83811015611c22578082015181840152602081019050611c07565b83811115611c31576000848401525b50505050565b60006002820490506001821680611c4f57607f821691505b60208210811415611c6357611c62611ce1565b5b50919050565b6000611c7482611beb565b91507fffffffffffffffffffffffffffffffffffffffffffffffffffffffffffffffff821415611ca757611ca6611cb2565b5b600182019050919050565b7f4e487b7100000000000000000000000000000000000000000000000000000000600052601160045260246000fd5b7f4e487b7100000000000000000000000000000000000000000000000000000000600052602260045260246000fd5b7f4e487b7100000000000000000000000000000000000000000000000000000000600052604160045260246000fd5b6000601f19601f8301169050919050565b611d5981611bb9565b8114611d6457600080fd5b5056fea2646970667358221220e47e908c858c8056195bc2433f06cfb8338b5d69475ff09a8beeafbd14831c8664736f6c63430008000033",
  "immutableReferences": {},
  "source": "// SPDX-License-Identifier: UNLICENSED\r\npragma solidity >=0.8.0;\r\n\r\ncontract PubSubContract {\r\n    struct Topic {\r\n        string name;\r\n        string[] messages;\r\n        address[] publishers;\r\n        address[] subscribers;\r\n        mapping(address => string[]) subscriberToMessages;\r\n        mapping(address => uint) subscriberToBalance;\r\n    }\r\n\r\n    mapping(string => Topic) private topics;\r\n    \r\n    event MessageReceived(string topic, string message, address subscriber);\r\n\r\n    function advertise(string memory _topicName) public {\r\n        Topic storage topic = topics[_topicName];\r\n        if (bytes(topic.name).length == 0) {\r\n            topic.name = _topicName;\r\n        }\r\n\r\n        bool alreadyPublisher = false;\r\n        for (uint i = 0; i < topic.publishers.length; i++) {\r\n            if (topic.publishers[i] == msg.sender) {\r\n                alreadyPublisher = true;\r\n                break;\r\n            }\r\n        }\r\n\r\n        if (!alreadyPublisher) {\r\n            topic.publishers.push(msg.sender);\r\n        }\r\n    }\r\n\r\n    function subscribe(string memory _topicName) public payable {\r\n        require(bytes(topics[_topicName].name).length != 0, \"Topic does not exist\");\r\n        require(msg.value == 0.5 ether, \"Must send 0.5 ETH to subscribe\");\r\n\r\n        Topic storage topic = topics[_topicName];\r\n        require(topic.subscriberToBalance[msg.sender] == 0, \"Already subscribed to this topic\");\r\n        \r\n        topic.subscribers.push(msg.sender);\r\n        topic.subscriberToBalance[msg.sender] = msg.value;\r\n    }\r\n\r\n    function publish(string memory _topicName, string memory _message) public {\r\n        Topic storage topic = topics[_topicName];\r\n        require(bytes(topic.name).length != 0, \"Topic does not exist\");\r\n\r\n        bool isPublisher = false;\r\n        for (uint i = 0; i < topic.publishers.length; i++) {\r\n            if (topic.publishers[i] == msg.sender) {\r\n                isPublisher = true;\r\n                break;\r\n            }\r\n        }\r\n\r\n        require(isPublisher, \"Caller is not a publisher of this topic\");\r\n\r\n        topic.messages.push(_message);\r\n\r\n        for (uint i = 0; i < topic.subscribers.length; ) {\r\n            address subscriber = topic.subscribers[i];\r\n            uint balance = topic.subscriberToBalance[subscriber];\r\n\r\n            if (balance > 0) {\r\n                if (balance >= 0.005 ether) {\r\n                    topic.subscriberToBalance[subscriber] -= 0.005 ether;\r\n                } else {\r\n                    topic.subscriberToBalance[subscriber] = 0;\r\n                }\r\n\r\n                topic.subscriberToMessages[subscriber].push(_message);\r\n\r\n                emit MessageReceived(_topicName, _message, subscriber);\r\n            }\r\n\r\n            if (topic.subscriberToBalance[subscriber] == 0) {\r\n                address lastSubscriber = topic.subscribers[topic.subscribers.length - 1];\r\n                topic.subscribers[i] = lastSubscriber;\r\n                topic.subscribers.pop();\r\n\r\n                delete topic.subscriberToBalance[subscriber];\r\n                delete topic.subscriberToMessages[subscriber];\r\n            } else {\r\n                i++;\r\n            }\r\n        }\r\n    }\r\n\r\n    function unsubscribe(string memory _topicName) public {\r\n        Topic storage topic = topics[_topicName];\r\n        require(bytes(topic.name).length != 0, \"Topic does not exist\");\r\n\r\n        uint bal = topic.subscriberToBalance[msg.sender];\r\n        require(bal > 0, \"Not subscribed or no balance remaining\");\r\n\r\n        payable(msg.sender).transfer(bal);\r\n\r\n        for (uint i = 0; i < topic.subscribers.length; i++) {\r\n            if (topic.subscribers[i] == msg.sender) {\r\n                topic.subscribers[i] = topic.subscribers[topic.subscribers.length - 1];\r\n                topic.subscribers.pop();\r\n                break;\r\n            }\r\n        }\r\n\r\n        delete topic.subscriberToBalance[msg.sender];\r\n        delete topic.subscriberToMessages[msg.sender];\r\n    }\r\n\r\n    function getTopicPublishers(string memory _topicName) public view returns(address[] memory) {\r\n        return topics[_topicName].publishers;\r\n    }\r\n    function getTopicSubscribers(string memory _topicName) public view returns(address[] memory) {\r\n        return topics[_topicName].subscribers;\r\n    }\r\n    function getSubscriberMessages(string memory _topicName, address _subscriber) public view returns(string[] memory) {\r\n        return topics[_topicName].subscriberToMessages[_subscriber];\r\n    }\r\n    function getSubscriberBalance(string memory _topicName, address _subscriber) public view returns(uint) {\r\n        return topics[_topicName].subscriberToBalance[_subscriber];\r\n    }\r\n}\r\n",
  "sourcePath": "C:\\Users\\kevin\\Documents\\GitHub\\studentNumberContract\\contracts\\PubSubContract.sol",
  "compiler": {
    "name": "solc",
    "version": "0.8.0+commit.c7dfd78e.Emscripten.clang"
  },
  "schemaVersion": "3.4.16",
  "updatedAt": "2025-08-11T20:59:12.297Z",
  "networkType": "ethereum",
  "devdoc": {
    "kind": "dev",
    "methods": {},
    "version": 1
  },
  "userdoc": {
    "kind": "user",
    "methods": {},
    "version": 1
  }
}