{
  "contractName": "StudentContract",
  "abi": [
    {
      "inputs": [],
      "stateMutability": "nonpayable",
      "type": "constructor"
    },
    {
      "inputs": [],
      "name": "student",
      "outputs": [
        {
          "internalType": "address",
          "name": "",
          "type": "address"
        }
      ],
      "stateMutability": "view",
      "type": "function",
      "constant": true
    },
    {
      "inputs": [],
      "name": "studentNumber",
      "outputs": [
        {
          "internalType": "uint256",
          "name": "",
          "type": "uint256"
        }
      ],
      "stateMutability": "view",
      "type": "function",
      "constant": true
    },
    {
      "inputs": [
        {
          "internalType": "address",
          "name": "",
          "type": "address"
        }
      ],
      "name": "studentToStudentNumber",
      "outputs": [
        {
          "internalType": "uint256",
          "name": "",
          "type": "uint256"
        }
      ],
      "stateMutability": "view",
      "type": "function",
      "constant": true
    },
    {
      "inputs": [
        {
          "internalType": "uint256",
          "name": "_studentNumber",
          "type": "uint256"
        }
      ],
      "name": "setStudentNumber",
      "outputs": [],
      "stateMutability": "payable",
      "type": "function",
      "payable": true
    },
    {
      "inputs": [],
      "name": "getStudentNumber",
      "outputs": [
        {
          "internalType": "uint256",
          "name": "",
          "type": "uint256"
        }
      ],
      "stateMutability": "view",
      "type": "function",
      "constant": true
    }
  ],
  "bytecode": "0x608060405234801561001057600080fd5b5033600160006101000a81548173ffffffffffffffffffffffffffffffffffffffff021916908373ffffffffffffffffffffffffffffffffffffffff160217905550600060026000600160009054906101000a900473ffffffffffffffffffffffffffffffffffffffff1673ffffffffffffffffffffffffffffffffffffffff1673ffffffffffffffffffffffffffffffffffffffff16815260200190815260200160002081905550610410806100c86000396000f3fe60806040526004361061004a5760003560e01c8063484a0d411461004f578063699450e81461007a5780639ae0c8e8146100a5578063b1a27377146100e2578063b60377591461010d575b600080fd5b34801561005b57600080fd5b50610064610129565b6040516100719190610344565b60405180910390f35b34801561008657600080fd5b5061008f61012f565b60405161009c9190610309565b60405180910390f35b3480156100b157600080fd5b506100cc60048036038101906100c79190610259565b610155565b6040516100d99190610344565b60405180910390f35b3480156100ee57600080fd5b506100f761016d565b6040516101049190610344565b60405180910390f35b61012760048036038101906101229190610282565b610176565b005b60005481565b600160009054906101000a900473ffffffffffffffffffffffffffffffffffffffff1681565b60026020528060005260406000206000915090505481565b60008054905090565b66132f4579c9800034146101bf576040517f08c379a00000000000000000000000000000000000000000000000000000000081526004016101b690610324565b60405180910390fd5b806000819055508060026000600160009054906101000a900473ffffffffffffffffffffffffffffffffffffffff1673ffffffffffffffffffffffffffffffffffffffff1673ffffffffffffffffffffffffffffffffffffffff1681526020019081526020016000208190555050565b60008135905061023e816103ac565b92915050565b600081359050610253816103c3565b92915050565b60006020828403121561026b57600080fd5b60006102798482850161022f565b91505092915050565b60006020828403121561029457600080fd5b60006102a284828501610244565b91505092915050565b6102b481610370565b82525050565b60006102c760148361035f565b91507f4d7573742073656e6420302e30303534204554480000000000000000000000006000830152602082019050919050565b610303816103a2565b82525050565b600060208201905061031e60008301846102ab565b92915050565b6000602082019050818103600083015261033d816102ba565b9050919050565b600060208201905061035960008301846102fa565b92915050565b600082825260208201905092915050565b600061037b82610382565b9050919050565b600073ffffffffffffffffffffffffffffffffffffffff82169050919050565b6000819050919050565b6103b581610370565b81146103c057600080fd5b50565b6103cc816103a2565b81146103d757600080fd5b5056fea2646970667358221220145c8368628f3eb75a585822e93dedaa2e241b067f316cdfb6a50e9be752987c64736f6c63430008000033",
  "immutableReferences": {},
  "source": "// SPDX-License-Identifier: UNLICENSED\r\npragma solidity >=0.8.0;\r\n\r\ncontract StudentContract {\r\n    uint public studentNumber;\r\n    address public student;\r\n    mapping(address => uint) public studentToStudentNumber;\r\n\r\n    constructor() public {\r\n        student = msg.sender;\r\n        studentToStudentNumber[student] = 0;\r\n    }\r\n\r\n    function setStudentNumber(uint _studentNumber) public payable {\r\n        require(msg.value == 5400000000000000 wei, \"Must send 0.0054 ETH\");\r\n        studentNumber = _studentNumber;\r\n        studentToStudentNumber[student] = _studentNumber;\r\n    }\r\n\r\n    function getStudentNumber() public view returns (uint) {\r\n        return studentNumber;\r\n    }\r\n}\r\n",
  "sourcePath": "C:\\Users\\kevin\\Documents\\GitHub\\studentNumberContract\\contracts\\StudentContract.sol",
  "compiler": {
    "name": "solc",
    "version": "0.8.0+commit.c7dfd78e.Emscripten.clang"
  },
  "schemaVersion": "3.4.16",
  "updatedAt": "2025-08-03T23:10:35.572Z",
  "networkType": "ethereum",
  "devdoc": {
    "kind": "dev",
    "methods": {},
    "version": 1
  },
  "userdoc": {
    "kind": "user",
    "methods": {},
    "version": 1
  }
}